:100000000C9456000C9473000C9473000C947300C1
:100010000C9473000C9473000C9473000C94730094
:100020000C9473000C9473000C9473000C94730084
:100030000C9473000C9473000C9473000C94730074
:100040000C9473000C9473000C9473000C94730064
:100050000C9473000C9473000C9473000C94730054
:100060000C9473000C9473000C9473000C94730044
:100070000C9473000C9473000C9473000C94730034
:100080000C9473000C9473000C9473000C94730024
:100090000C9475000C9473000C9473000C94730012
:1000A0000C9473000C9473000C94730011241FBE05
:1000B000CFEFDAE0DEBFCDBF11E0A0E0B1E0E8E7CE
:1000C000F1E002C005900D92AC30B107D9F721E004
:1000D000ACE0B1E001C01D92AD30B207E1F70E9483
:1000E000A9000C94BA000C9400001F920F920FB656
:1000F0000F9211248F93EF93FF938091B900883A68
:10010000B1F0883BA1F0803869F08091BC00806834
:100110008093BC00FF91EF918F910F900FBE0F90D5
:100120001F9018958091BB0080930C01EECFE09159
:100130000C01E85F80E0E93020F4F0E0EF5FFE4F73
:1001400080818093BB0080910C018F5F80930C01B4
:10015000DCCF80E388B984EA8093BA00789485E4A0
:100160008093BC0083B7817F83BF83B7816083BFE7
:080170008895FECFF894FFCF43
:0C017800F8626F6F744055534200520053
:00000001FF
