:100000000C9472000C9493000C9493000C94930045
:100010000C9493000C9493000C9493000C94930014
:100020000C9493000C9493000C9493000C94930004
:100030000C9493000C9493000C9493000C949300F4
:100040000C9493000C9493000C9493000C949300E4
:100050000C9493000C9493000C9493000C949300D4
:100060000C9493000C9493000C9493000C949300C4
:100070000C9493000C9493000C9493000C949300B4
:100080000C9493000C9493000C9493000C949300A4
:100090000C9493000C9493000C9493000C94950092
:1000A0000C9493000C9493000C9493000C94930084
:1000B0000C9493000C9493000C9493000C94930074
:1000C0000C9493000C9493000C9493000C94930064
:1000D0000C9493000C9493000C9493000C94930054
:1000E0000C94930011241FBECFEFD1E2DEBFCDBF31
:1000F00000E00CBF12E0A0E0B2E0E0ECF1E000E0D4
:100100000BBF02C007900D92AC30B107D9F722E0C7
:10011000ACE0B2E001C01D92AD30B207E1F70E9441
:10012000CD000C94DE000C9400001F920F920FB6CD
:100130000F9211240BB60F928F93EF93FF93809140
:10014000B900883AC1F0883BB1F0803879F08091ED
:10015000BC0080688093BC00FF91EF918F910F905D
:100160000BBE0F900FBE0F901F9018958091BB0093
:1001700080930C02ECCFE0910C02E85F80E0E93064
:1001800020F4F0E0EF5FFD4F80818093BB00809111
:100190000C028F5F80930C02DACF80E388B984EA87
:1001A0008093BA00789485E48093BC0083B7817F04
:1001B00083BF83B7816083BF8895FECFF894FFCF5C
:0C01C000F8626F6F74405553420052000B
:00000001FF
